:100000000C942A000C943B020C949D020C94470023
:100010000C9447000C9447000C9447000C94470044
:100020000C9447000C9447000C9447000C94470034
:100030000C9447000C9447000C9447000C94470024
:100040000C9473020C9447000C9447000C944700E6
:100050000C94470011241FBECFE5D8E0DEBFCDBF12
:1000600011E0A0E6B0E0E4E4F4E102C005900D92F6
:10007000A632B107D9F721E0A6E2B1E001C01D9296
:10008000A033B207E1F70E9409030C94200A0C94F4
:100090000000C09A8FEC97E00197F1F700C00000D4
:1000A000C0988FEC97E00197F1F700C00000089529
:1000B000CF93C82FC29884E090E061E070E03BB33A
:1000C000AB01082E02C0440F551F0A94E2F7242FFB
:1000D000209523232BBB01968830910581F78BB3A4
:1000E0009C2F907F892B8BBB0E94490084E090E07D
:1000F00061E070E03BB3AB01082E02C0440F551F16
:100100000A94E2F7242F209523232BBB01968830F5
:10011000910581F72BB330E1C39FC0011124822BDD
:100120008BBB0E944900CF910895D49AD59AD69A54
:10013000D79A8BB38F708BBBBA9AB89AB99AC19879
:1001400082E00E94580088E20E94580081E00E94EC
:1001500058008CE00E94580080E80E94580086E019
:100160000E9458008FE39CE90197F1F700C000005E
:100170000895CF93C82FC29A84E090E061E070E0C8
:100180003BB3AB01082E02C0440F551F0A94E2F79F
:10019000242F209523232BBB01968830910581F7CE
:1001A0008BB39C2F907F892B8BBB0E94490084E0EE
:1001B00090E061E070E03BB3AB01082E02C0440F59
:1001C000551F0A94E2F7242F209523232BBB019679
:1001D0008830910581F72BB330E1C39FC001112412
:1001E000822B8BBB0E944900CF910895EF92FF9222
:1001F0000F931F93CF93DF938C017C01C0E0D0E07D
:1002000006C0F70181917F010E94B9002196F80193
:1002100001900020E9F73197E01BF10BCE17DF07C3
:1002200080F3DF91CF911F910F91FF90EF90089590
:1002300084B3806F84BB85B38F6085BB0895EF92D4
:10024000FF920F931F93CF93DF93EE24E394F12C4F
:1002500085B3806F85BB04E010E085B3E701002E15
:1002600002C0CC0FDD1F0A94E2F79C2F90958923E2
:1002700085BB85B3807F803B09F47CC020F4803748
:1002800009F4B0C0E7C0803DE9F1803E09F0E2C06A
:1002900083B360E00E94C303811108C083B360E0B0
:1002A0000E94C3038823D1F387E3DEC083B361E0F8
:1002B0000E94C303811108C083B361E00E94C3039D
:1002C0008823D1F384E3D0C083B362E00E94C303E8
:1002D000811108C083B362E00E94C3038823D1F375
:1002E00081E3C2C083B363E00E94C3038111B2C043
:1002F00083B363E00E94C3038823D1F381E00E94AB
:100300005800A8C083B360E00E94C303811108C0F5
:1003100083B360E00E94C3038823D1F388E3A4C0C1
:1003200083B361E00E94C303811108C083B361E01D
:100330000E94C3038823D1F385E396C083B362E0B0
:100340000E94C303811108C083B362E00E94C3030B
:100350008823D1F382E388C083B363E00E94C303A0
:10036000811178C083B363E00E94C3038823D1F373
:1003700080E37AC083B360E00E94C303811108C0A8
:1003800083B360E00E94C3038823D1F389E36CC088
:1003900083B361E00E94C303811108C083B361E0AD
:1003A0000E94C3038823D1F386E35EC083B362E077
:1003B0000E94C303811108C083B362E00E94C3039B
:1003C0008823D1F383E350C083B363E00E94C30367
:1003D000811140C083B363E00E94C3038823D1F33B
:1003E0008DE342C083B360E00E94C303811108C063
:1003F00083B360E00E94C3038823D1F38FE234C04B
:1004000083B361E00E94C303811108C083B361E03C
:100410000E94C3038823D1F38AE226C083B362E03B
:100420000E94C303811108C083B362E00E94C3032A
:100430008823D1F38DE218C083B363E00E94C30325
:10044000811108C083B363E00E94C3038823D1F302
:100450008BE20AC085B3C82BC5BB0F5F1F4F0830A6
:10046000110509F0FACEF4CEDF91CF911F910F91D3
:10047000FF90EF9008951F920F920FB60F921124E4
:100480002F933F934F935F936F937F938F939F939C
:10049000AF93BF93EF93FF9381E00E94580080E6F3
:1004A00090E00E94F6008C9A949A2FEF81E19AE7EF
:1004B000215080409040E1F700C00000949881E016
:1004C0000E945800FF91EF91BF91AF919F918F9142
:1004D0007F916F915F914F913F912F910F900FBE40
:1004E0000F901F9018951F920F920FB60F92112424
:1004F0002F933F934F935F936F937F938F939F932C
:10050000AF93BF93EF93FF9381E00E9458000E9446
:10051000A5040E94F600369AFF91EF91BF91AF912A
:100520009F918F917F916F915F914F913F912F910B
:100530000F900FBE0F901F9018951F920F920FB63D
:100540000F921124EF92FF920F931F932F933F93DB
:100550004F935F936F937F938F939F93AF93BF93CB
:10056000CF93DF93EF93FF93369A81E00E94580078
:1005700080E80E9458008BE690E00E94F60004B1EB
:1005800015B1E12CF12C01C08E01C4B1D5B1C01759
:10059000D10769F004B115B180EC0E9458000E94A7
:1005A000A5040E94F600EE24E394F12CEECF80EC3B
:1005B0000E9458000E94A5040E94F6008FEFE81ADE
:1005C000F80A84E6E816F104FCF281E00E94580083
:1005D00080E80E94580086E790E00E94F60080ECD8
:1005E0000E945800FF91EF91DF91CF91BF91AF91A1
:1005F0009F918F917F916F915F914F913F912F913B
:100600001F910F91FF90EF900F900FBE0F901F90D2
:1006100018950E94BF040E94CB030E94DA030E9437
:10062000EA040E9495000E941801C3E0D0E081E036
:100630000E94580080E80E94580085E890E00E94DF
:10064000F60080EC0E94580004E010E00E941F01B8
:10065000F82E84E990E00E94F6008F2D0E94F104AC
:100660000150110999F72FEF80E792E02150804067
:100670009040E1F700C0000083E20E94F104813362
:10068000A1F481E00E94580080E80E94580086E9A9
:1006900090E00E94F6002FEF83ED90E32150804020
:1006A0009040E1F700C0000028C080E80E94580098
:1006B00087EA90E00E94F6002FEF83ED90E321504F
:1006C00080409040E1F700C00000C130D10591F4B6
:1006D00081E00E94580080E80E94580086EB90E07C
:1006E0000E94F60080EC0E94580084EC90E00E948A
:1006F000F600FFCF219709F09ACF81E00E945800C1
:1007000083ED90E00E94F60080EC0E9458008BED93
:1007100090E00E94F60080E90E94580087EE90E089
:100720000E94F60080ED0E94580084EF90E00E9445
:10073000F6000E941F01813319F0823391F0F9CF46
:1007400060E070E0CB010E94CB040E94E1057BBD1C
:100750006ABD80E80E94580086E091E00E94F600A1
:10076000E8CF60E070E084EB92E40E94CB040E944A
:10077000E1057BBD6ABD80E80E94580082E191E0FE
:100780000E94F600D6CF90E002C0959587956A95B5
:10079000E2F7817008958B98939A85B7816085BF41
:1007A00085B7826085BF8FB780688FBF8BB7806841
:1007B0008BBF0895D1983E9A389A379A319A329AD7
:1007C0008FE19EE40197F1F700C000000895369A8A
:1007D000349BFECF84B195B108954F925F926F9292
:1007E0007F92AF92BF92CF92DF92EF92FF920F93E0
:1007F0001F93CF93DF93CDB7DEB72A970FB6F89448
:10080000DEBF0FBECDBF6B017C01FE0131968AE0D9
:10081000DF011D928A95E9F7C701B6010E94DA054A
:100820002B013C01072E000C880B990B0E9412062D
:100830009B01AC01C701B6010E94F6046B017C016B
:1008400020E030E040E85FE30E94630588230CF07D
:1008500040C020E030E0A901C701B6010E94630555
:100860008823B9F100E010E001C0850120E030E00C
:1008700040E251E4C701B6010E94C2066B017C014F
:100880005801BFEFAB1ABB0A20E030E040E85FE35D
:100890000E94630588234CF420E030E0A901C701E1
:1008A000B6010E9463058111E0CF20E030E040E214
:1008B00051E4C701B6010E94C2066B017C01AB285E
:1008C00091F0A80160E370E0CE0101960E942F072D
:1008D0000AC020E030E040E251E4C701B6010E94C6
:1008E000C2066B017C01C701B6010E94DA057F9345
:1008F0006F93CE0101969F938F935F924F928EE1FB
:1009000091E09F938F9386E291E09F938F930E9453
:1009100036070FB6F894DEBF0FBECDBF86E291E07A
:100920002A960FB6F894DEBF0FBECDBFDF91CF91F0
:100930001F910F91FF90EF90DF90CF90BF90AF90FD
:100940007F906F905F904F9008950E94E703BC01E5
:10095000660F771F880F991F880F991F880F991F9F
:10096000680F791F80E090E00E94100620E030ECD4
:100970004FE754E40E9468050E94ED0308958D9AA4
:100980008FB582688FBD8EB58A618EBD8FE19EE482
:1009900097BD86BD089520E030E044EB52E40E940C
:1009A000F70420E030E044E353E40E94680520E0CF
:1009B00030E040E85FE30E94F70420E03EE34CE9CA
:1009C00056E40E94C20620E030E040EA51E40E9472
:1009D0006805089587B3806B87BB8DB182658DB93B
:1009E00008958FB9779BFECF8FB108955058BB27DC
:1009F000AA270E940E050C9488060E947A0638F0F9
:100A00000E94810620F039F49F3F19F426F40C94DB
:100A100077060EF4E095E7FB0C947106E92F0E942F
:100A2000990658F3BA17620773078407950720F0F1
:100A300079F4A6F50C94BB060EF4E0950B2EBA2FB4
:100A4000A02D0B01B90190010C01CA01A0011124D4
:100A5000FF27591B99F0593F50F4503E68F11A1680
:100A6000F040A22F232F342F4427585FF3CF469511
:100A700037952795A795F0405395C9F77EF41F1633
:100A8000BA0B620B730B840BBAF09150A1F0FF0FFD
:100A9000BB1F661F771F881FC2F70EC0BA0F621FE9
:100AA000731F841F48F4879577956795B795F795D9
:100AB0009E3F08F0B0CF9395880F08F09927EE0F6E
:100AC0009795879508950E944D0608F481E0089552
:100AD0000E947C050C9488060E94810658F00E94B2
:100AE0007A0640F029F45F3F29F00C947106511109
:100AF0000C94BC060C9477060E94990668F399231F
:100B0000B1F3552391F3951B550BBB27AA27621709
:100B10007307840738F09F5F5F4F220F331F441F16
:100B2000AA1FA9F335D00E2E3AF0E0E832D091504A
:100B30005040E695001CCAF72BD0FE2F29D0660F37
:100B4000771F881FBB1F261737074807AB07B0E87A
:100B500009F0BB0B802DBF01FF2793585F4F3AF080
:100B60009E3F510578F00C9471060C94BC065F3FD3
:100B7000E4F3983ED4F3869577956795B795F79506
:100B80009F5FC9F7880F911D9695879597F90895EE
:100B9000E1E0660F771F881FBB1F6217730784078A
:100BA000BA0720F0621B730B840BBA0BEE1F88F799
:100BB000E09508950E94E1056894B1110C94BC067B
:100BC00008950E94A10688F09F5798F0B92F9927A1
:100BD000B751B0F0E1F0660F771F881F991F1AF028
:100BE000BA95C9F714C0B13091F00E94BB06B1E0CC
:100BF00008950C94BB06672F782F8827B85F39F0CB
:100C0000B93FCCF3869577956795B395D9F73EF4C0
:100C100090958095709561957F4F8F4F9F4F089568
:100C2000E89409C097FB3EF4909580957095619586
:100C30007F4F8F4F9F4F9923A9F0F92F96E9BB273C
:100C40009395F695879577956795B795F111F8CFB8
:100C5000FAF4BB0F11F460FF1BC06F5F7F4F8F4F23
:100C60009F4F16C0882311F096E911C0772321F019
:100C70009EE8872F762F05C0662371F096E8862FB1
:100C800070E060E02AF09A95660F771F881FDAF708
:100C9000880F9695879597F90895990F0008550F35
:100CA000AA0BE0E8FEEF16161706E807F907C0F0F2
:100CB00012161306E407F50798F0621B730B840BFA
:100CC000950B39F40A2661F0232B242B252B21F4D4
:100CD00008950A2609F4A140A6958FEF811D811D74
:100CE000089597F99F6780E870E060E008959FEFAE
:100CF00080EC089500240A941616170618060906B3
:100D0000089500240A941216130614060506089581
:100D1000092E0394000C11F4882352F0BB0F40F409
:100D2000BF2B11F460FF04C06F5F7F4F8F4F9F4F49
:100D3000089557FD9058440F551F59F05F3F71F0CB
:100D40004795880F97FB991F61F09F3F79F0879532
:100D50000895121613061406551FF2CF4695F1DFBB
:100D600008C0161617061806991FF1CF869571054B
:100D7000610508940895E894BB2766277727CB017F
:100D800097F908950E94D5060C9488060E947A0669
:100D900038F00E94810620F0952311F00C94710622
:100DA0000C94770611240C94BC060E94990670F3EB
:100DB000959FC1F3950F50E0551F629FF001729F00
:100DC000BB27F00DB11D639FAA27F00DB11DAA1F0F
:100DD000649F6627B00DA11D661F829F2227B00D5C
:100DE000A11D621F739FB00DA11D621F839FA00DE7
:100DF000611D221F749F3327A00D611D231F849F37
:100E0000600D211D822F762F6A2F11249F5750408D
:100E10009AF0F1F088234AF0EE0FFF1FBB1F661F08
:100E2000771F881F91505040A9F79E3F510580F0D1
:100E30000C9471060C94BC065F3FE4F3983ED4F327
:100E4000869577956795B795F795E7959F5FC1F775
:100E5000FE2B880F911D9695879597F90895DC01D3
:100E600001C06D9341505040E0F70895AEE0B0E00E
:100E7000ECE3F7E00C94F7090D891E8986E08C837A
:100E80001A8309838FEF9FE79E838D83AE01475EB0
:100E90005F4F6F89788DCE0101960E945807EF81D0
:100EA000F885E00FF11F10822E96E4E00C94130AEF
:100EB000ABE0B0E0EEE5F7E00C94E9096C017B01F2
:100EC0008A01FC0117821682838181FFCCC1CE0189
:100ED00001963C01F6019381F70193FD859193FF03
:100EE00081917F01882309F4BAC1853239F493FDD9
:100EF000859193FF81917F01853229F4B60190E0BD
:100F00000E944F09E7CF912C212C312CFFE1F315E2
:100F1000D8F08B3279F038F4803279F08332A1F452
:100F2000232D20611DC08D3261F0803369F4232DA3
:100F3000216016C0832D8260382EE32DE4603E2EA2
:100F40002AC0F32DF8601DC037FC2DC020ED280FFE
:100F50002A3040F08E32B9F436FC81C1232D206452
:100F6000322E19C036FE06C08AE0989E200D11244C
:100F7000922E11C0EAE02E9E200D1124222EF32D78
:100F8000F0623F2E08C08C3621F4832D8068382E05
:100F900002C0883641F4F70193FD859193FF81915A
:100FA0007F018111B3CF982F9F7D9554933028F402
:100FB0000C5F1F4F9FE399830DC0833631F0833759
:100FC00071F0833509F059C021C0F801808189830F
:100FD0000E5F1F4F88248394912C530113C0280166
:100FE000F2E04F0E511CF801A080B18036FE03C024
:100FF000692D70E002C06FEF7FEFC5010E944409C8
:101000004C018201F32DFF773F2E16C0280122E00C
:10101000420E511CF801A080B18036FE03C0692D3C
:1010200070E002C06FEF7FEFC5010E9439094C01EB
:10103000F32DF0683F2E820133FC1BC0822D90E01F
:1010400088169906B0F4B60180E290E00E944F093C
:101050002A94F4CFF50137FC859137FE81915F0129
:10106000B60190E00E944F0921102A9421E0821AD3
:1010700091088114910471F7E8C0843611F0893623
:1010800041F5F80137FE07C060817181828193814B
:101090000C5F1F4F08C060817181072E000C880B08
:1010A000990B0E5F1F4FF32DFF763F2E97FF09C060
:1010B00090958095709561957F4F8F4F9F4FF06809
:1010C0003F2E2AE030E0A3010E948B09882E86186B
:1010D00045C0853731F4232D2F7EB22E2AE030E033
:1010E00025C0932D997FB92E8F36C1F018F488351D
:1010F00079F0B5C0803719F0883721F0B0C0E92FFA
:10110000E061BE2EB4FE0DC0FB2DF460BF2E09C001
:1011100034FE0AC0292F2660B22E06C028E030E037
:1011200005C020E130E002C020E132E0F801B7FE66
:1011300007C060817181828193810C5F1F4F06C05F
:101140006081718180E090E00E5F1F4FA3010E94DB
:101150008B09882E8618FB2DFF773F2E36FE0DC09B
:10116000232D2E7FA22E891458F434FE0BC032FC9E
:1011700009C0832D8E7EA82E05C0B82CA32C03C0D9
:10118000B82C01C0B92CA4FE0FC0FE01E80DF11D62
:101190008081803321F49A2D997EA92E09C0A2FE68
:1011A00006C0B394B39404C08A2D867809F0B39432
:1011B000A3FC11C0A0FE06C0B21488F4280C922C27
:1011C0009B180EC0B21460F4B60180E290E00E9459
:1011D0004F09B394F7CFB21418F42B1802C0982C0F
:1011E000212CA4FE10C0B60180E390E00E944F09BC
:1011F000A2FE17C0A1FC03C088E790E002C088E50A
:1012000090E0B6010CC08A2D867859F0A1FE02C08C
:101210008BE201C080E2A7FC8DE2B60190E00E9463
:101220004F09891438F4B60180E390E00E944F0919
:101230009A94F7CF8A94F301E80DF11D8081B601ED
:1012400090E00E944F098110F5CF222009F442CE90
:10125000B60180E290E00E944F092A94F6CFF60191
:101260008681978102C08FEF9FEF2B96E2E10C946D
:10127000050AFC010590615070400110D8F7809577
:1012800090958E0F9F1F0895FC0161507040019052
:101290000110D8F7809590958E0F9F1F08950F939A
:1012A0001F93CF93DF93FB01238121FD03C08FEFB9
:1012B0009FEF2CC022FF16C04681578124813581C3
:1012C0004217530744F4A081B1819D012F5F3F4F26
:1012D000318320838C93268137812F5F3F4F378363
:1012E000268314C08B01EC01FB010084F185E02D05
:1012F0000995892BE1F6D80116968D919C91179747
:10130000019617969C938E931697CE01DF91CF91FD
:101310001F910F910895FA01AA27283051F1203129
:1013200081F1E8946F936E7F6E5F7F4F8F4F9F4F79
:10133000AF4FB1E03ED0B4E03CD0670F781F891FBB
:101340009A1FA11D680F791F8A1F911DA11D6A0F89
:10135000711D811D911DA11D20D009F468943F913C
:101360002AE0269F11243019305D3193DEF6CF013B
:101370000895462F4770405D4193B3E00FD0C9F701
:10138000F6CF462F4F70405D4A3318F0495D31FD6E
:101390004052419302D0A9F7EACFB4E0A6959795C1
:1013A000879577956795BA95C9F700976105710597
:1013B00008959B01AC010A2E0694579547953795E1
:1013C0002795BA95C9F7620F731F841F951FA01D3B
:1013D00008952F923F924F925F926F927F928F92D9
:1013E0009F92AF92BF92CF92DF92EF92FF920F93B4
:1013F0001F93CF93DF93CDB7DEB7CA1BDB0B0FB6BE
:10140000F894DEBF0FBECDBF09942A88398848887A
:101410005F846E847D848C849B84AA84B984C88410
:10142000DF80EE80FD800C811B81AA81B981CE0F07
:10143000D11D0FB6F894DEBF0FBECDBFED010895EC
:04144000F894FFCF4E
:101444004649524520414C41524D00425249474879
:10145400544E45535300456E746572205061737346
:10146400776F726400456E74657220706173737770
:101474006F7264002A00436F727265637420706136
:101484007373776F72640057726F6E672070617345
:1014940073776F726400332074696D65732077729B
:1014A4006F6E670073616665206973206C6F636B90
:1014B40065640043686F6F73652000312D4F70655C
:1014C4006E207361666500322D436C6F7365207303
:1014D40061666500332D4368616E676520506173F2
:1014E40073776F72640073616665206F70656E65F3
:1014F40064007361666520636C6F736564002564C2
:061504002E257325640092
:00000001FF
